{
  "_format": "hh-sol-artifact-1",
  "contractName": "Factory",
  "sourceName": "contracts/Factory.sol",
  "abi": [
    {
      "inputs": [
        {
          "internalType": "bytes32",
          "name": "_hashedPassword",
          "type": "bytes32"
        }
      ],
      "name": "createRecoveryContract",
      "outputs": [
        {
          "internalType": "address",
          "name": "recoveryContractAddress",
          "type": "address"
        }
      ],
      "stateMutability": "nonpayable",
      "type": "function"
    },
    {
      "inputs": [
        {
          "internalType": "address",
          "name": "",
          "type": "address"
        }
      ],
      "name": "recoveryContracts",
      "outputs": [
        {
          "internalType": "address",
          "name": "",
          "type": "address"
        }
      ],
      "stateMutability": "view",
      "type": "function"
    }
  ],
  "bytecode": "0x608060405234801561001057600080fd5b50610eac806100206000396000f3fe608060405234801561001057600080fd5b50600436106100365760003560e01c80631fff69d11461003b578063b0b0bac71461006b575b600080fd5b6100556004803603810190610050919061028b565b61009b565b604051610062919061033b565b60405180910390f35b610085600480360381019061008091906102b4565b6100ce565b604051610092919061033b565b60405180910390f35b60006020528060005260406000206000915054906101000a900473ffffffffffffffffffffffffffffffffffffffff1681565b60008073ffffffffffffffffffffffffffffffffffffffff166000803373ffffffffffffffffffffffffffffffffffffffff1673ffffffffffffffffffffffffffffffffffffffff16815260200190815260200160002060009054906101000a900473ffffffffffffffffffffffffffffffffffffffff1673ffffffffffffffffffffffffffffffffffffffff161461019c576040517f08c379a000000000000000000000000000000000000000000000000000000000815260040161019390610371565b60405180910390fd5b816040516101a990610254565b6101b39190610356565b604051809103906000f0801580156101cf573d6000803e3d6000fd5b509050806000803373ffffffffffffffffffffffffffffffffffffffff1673ffffffffffffffffffffffffffffffffffffffff16815260200190815260200160002060006101000a81548173ffffffffffffffffffffffffffffffffffffffff021916908373ffffffffffffffffffffffffffffffffffffffff160217905550919050565b610a6a8061040d83390190565b600081359050610270816103de565b92915050565b600081359050610285816103f5565b92915050565b60006020828403121561029d57600080fd5b60006102ab84828501610261565b91505092915050565b6000602082840312156102c657600080fd5b60006102d484828501610276565b91505092915050565b6102e6816103a2565b82525050565b6102f5816103b4565b82525050565b6000610308601883610391565b91507f5265636f7665727920436f6e74726163742045786973747300000000000000006000830152602082019050919050565b600060208201905061035060008301846102dd565b92915050565b600060208201905061036b60008301846102ec565b92915050565b6000602082019050818103600083015261038a816102fb565b9050919050565b600082825260208201905092915050565b60006103ad826103be565b9050919050565b6000819050919050565b600073ffffffffffffffffffffffffffffffffffffffff82169050919050565b6103e7816103a2565b81146103f257600080fd5b50565b6103fe816103b4565b811461040957600080fd5b5056fe608060405234801561001057600080fd5b50604051610a6a380380610a6a83398181016040528101906100329190610095565b8060008190555033600260006101000a81548173ffffffffffffffffffffffffffffffffffffffff021916908373ffffffffffffffffffffffffffffffffffffffff160217905550506100df565b60008151905061008f816100c8565b92915050565b6000602082840312156100a757600080fd5b60006100b584828501610080565b91505092915050565b6000819050919050565b6100d1816100be565b81146100dc57600080fd5b50565b61097c806100ee6000396000f3fe608060405234801561001057600080fd5b50600436106100885760003560e01c8063457ceb281161005b578063457ceb28146101135780636f1ae8bb146101315780638da5cb5b14610161578063f545c2831461017f57610088565b80630a1d371f1461008d5780631a8c4553146100bd5780633fbc6ab0146100c757806343589db8146100e3575b600080fd5b6100a760048036038101906100a291906104d7565b61019b565b6040516100b49190610702565b60405180910390f35b6100c56101f2565b005b6100e160048036038101906100dc91906104ae565b61024e565b005b6100fd60048036038101906100f891906104d7565b610269565b60405161010a9190610702565b60405180910390f35b61011b61029c565b604051610128919061071d565b60405180910390f35b61014b600480360381019061014691906104ae565b6102a2565b6040516101589190610798565b60405180910390f35b6101696102ba565b60405161017691906106e7565b60405180910390f35b610199600480360381019061019491906104d7565b6102e0565b005b6000806001600084336040516020016101b59291906106bf565b60405160208183030381529060405280519060200120815260200190815260200160002054146101e857600190506101ed565b600090505b919050565b600260009054906101000a900473ffffffffffffffffffffffffffffffffffffffff1673ffffffffffffffffffffffffffffffffffffffff163373ffffffffffffffffffffffffffffffffffffffff161461024c57600080fd5b565b42600160008381526020019081526020016000208190555050565b600080548260405160200161027e91906106a8565b60405160208183030381529060405280519060200120149050919050565b60005481565b60016020528060005260406000206000915090505481565b600260009054906101000a900473ffffffffffffffffffffffffffffffffffffffff1681565b6102e981610269565b610328576040517f08c379a000000000000000000000000000000000000000000000000000000000815260040161031f90610758565b60405180910390fd5b6103318161019b565b610370576040517f08c379a000000000000000000000000000000000000000000000000000000000815260040161036790610738565b60405180910390fd5b6001600082336040516020016103879291906106bf565b6040516020818303038152906040528051906020012081526020019081526020016000205442116103ed576040517f08c379a00000000000000000000000000000000000000000000000000000000081526004016103e490610778565b60405180910390fd5b33600260006101000a81548173ffffffffffffffffffffffffffffffffffffffff021916908373ffffffffffffffffffffffffffffffffffffffff16021790555050565b600061044461043f846107e4565b6107b3565b90508281526020810184848401111561045c57600080fd5b61046784828561088d565b509392505050565b60008135905061047e8161092f565b92915050565b600082601f83011261049557600080fd5b81356104a5848260208601610431565b91505092915050565b6000602082840312156104c057600080fd5b60006104ce8482850161046f565b91505092915050565b6000602082840312156104e957600080fd5b600082013567ffffffffffffffff81111561050357600080fd5b61050f84828501610484565b91505092915050565b6105218161083b565b82525050565b6105386105338261083b565b6108cf565b82525050565b6105478161084d565b82525050565b61055681610859565b82525050565b600061056782610814565b6105718185610830565b935061058181856020860161089c565b80840191505092915050565b600061059a60298361081f565b91507f6164647265737320686173206e6f74206265656e2070726576696f75736c792060008301527f636f6d6d697474656400000000000000000000000000000000000000000000006020830152604082019050919050565b600061060060158361081f565b91507f70617373776f726420697320696e636f727265637400000000000000000000006000830152602082019050919050565b600061064060398361081f565b91507f6f776e65727368697020636c61696d696e672063616e6e6f74206265206f6e2060008301527f7468652073616d6520626c6f636b206173206c6f636b696e67000000000000006020830152604082019050919050565b6106a281610883565b82525050565b60006106b4828461055c565b915081905092915050565b60006106cb828561055c565b91506106d78284610527565b6014820191508190509392505050565b60006020820190506106fc6000830184610518565b92915050565b6000602082019050610717600083018461053e565b92915050565b6000602082019050610732600083018461054d565b92915050565b600060208201905081810360008301526107518161058d565b9050919050565b60006020820190508181036000830152610771816105f3565b9050919050565b6000602082019050818103600083015261079181610633565b9050919050565b60006020820190506107ad6000830184610699565b92915050565b6000604051905081810181811067ffffffffffffffff821117156107da576107d96108f3565b5b8060405250919050565b600067ffffffffffffffff8211156107ff576107fe6108f3565b5b601f19601f8301169050602081019050919050565b600081519050919050565b600082825260208201905092915050565b600081905092915050565b600061084682610863565b9050919050565b60008115159050919050565b6000819050919050565b600073ffffffffffffffffffffffffffffffffffffffff82169050919050565b6000819050919050565b82818337600083830152505050565b60005b838110156108ba57808201518184015260208101905061089f565b838111156108c9576000848401525b50505050565b60006108da826108e1565b9050919050565b60006108ec82610922565b9050919050565b7f4e487b7100000000000000000000000000000000000000000000000000000000600052604160045260246000fd5b60008160601b9050919050565b61093881610859565b811461094357600080fd5b5056fea26469706673582212208356d5b350ed70d8339a06d00ed3f60d5efc5267ccb1e1429fcc9e0fa1c8cff664736f6c63430008000033a2646970667358221220bb2bd10eb4c207fb8518c0b11b6f82e57918f163c0a97140da1aef4566877bfe64736f6c63430008000033",
  "linkReferences": {},
  "deployedLinkReferences": {}
}