{
  "_format": "hh-sol-artifact-1",
  "contractName": "Recovery",
  "sourceName": "contracts/Recovery.sol",
  "abi": [
    {
      "inputs": [
        {
          "internalType": "bytes32",
          "name": "_hashedPassword",
          "type": "bytes32"
        }
      ],
      "stateMutability": "nonpayable",
      "type": "constructor"
    },
    {
      "inputs": [
        {
          "internalType": "string",
          "name": "password",
          "type": "string"
        },
        {
          "internalType": "address",
          "name": "recipient",
          "type": "address"
        }
      ],
      "name": "claimOwnership",
      "outputs": [],
      "stateMutability": "nonpayable",
      "type": "function"
    },
    {
      "inputs": [
        {
          "internalType": "bytes32",
          "name": "_lockHash",
          "type": "bytes32"
        }
      ],
      "name": "commitLockHash",
      "outputs": [],
      "stateMutability": "nonpayable",
      "type": "function"
    },
    {
      "inputs": [],
      "name": "hashedPassword",
      "outputs": [
        {
          "internalType": "bytes32",
          "name": "",
          "type": "bytes32"
        }
      ],
      "stateMutability": "view",
      "type": "function"
    },
    {
      "inputs": [
        {
          "internalType": "bytes32",
          "name": "",
          "type": "bytes32"
        }
      ],
      "name": "lockHashes",
      "outputs": [
        {
          "internalType": "uint256",
          "name": "",
          "type": "uint256"
        }
      ],
      "stateMutability": "view",
      "type": "function"
    },
    {
      "inputs": [],
      "name": "owner",
      "outputs": [
        {
          "internalType": "address",
          "name": "",
          "type": "address"
        }
      ],
      "stateMutability": "view",
      "type": "function"
    },
    {
      "inputs": [],
      "name": "retrieveERC20",
      "outputs": [],
      "stateMutability": "nonpayable",
      "type": "function"
    },
    {
      "inputs": [
        {
          "internalType": "string",
          "name": "password",
          "type": "string"
        },
        {
          "internalType": "address",
          "name": "recipient",
          "type": "address"
        }
      ],
      "name": "verifyLockHash",
      "outputs": [
        {
          "internalType": "bool",
          "name": "",
          "type": "bool"
        }
      ],
      "stateMutability": "view",
      "type": "function"
    },
    {
      "inputs": [
        {
          "internalType": "string",
          "name": "password",
          "type": "string"
        }
      ],
      "name": "verifyPassword",
      "outputs": [
        {
          "internalType": "bool",
          "name": "",
          "type": "bool"
        }
      ],
      "stateMutability": "view",
      "type": "function"
    }
  ],
  "bytecode": "0x608060405234801561001057600080fd5b50604051610aed380380610aed83398181016040528101906100329190610095565b8060008190555033600260006101000a81548173ffffffffffffffffffffffffffffffffffffffff021916908373ffffffffffffffffffffffffffffffffffffffff160217905550506100df565b60008151905061008f816100c8565b92915050565b6000602082840312156100a757600080fd5b60006100b584828501610080565b91505092915050565b6000819050919050565b6100d1816100be565b81146100dc57600080fd5b50565b6109ff806100ee6000396000f3fe608060405234801561001057600080fd5b50600436106100885760003560e01c8063457ceb281161005b578063457ceb28146100ff5780636f1ae8bb1461011d5780638da5cb5b1461014d578063c2e204761461016b57610088565b80631a8c45531461008d57806324fa25ea146100975780633fbc6ab0146100b357806343589db8146100cf575b600080fd5b61009561019b565b005b6100b160048036038101906100ac9190610530565b6101f7565b005b6100cd60048036038101906100c891906104c6565b61034a565b005b6100e960048036038101906100e491906104ef565b610365565b6040516100f6919061076e565b60405180910390f35b610107610398565b6040516101149190610789565b60405180910390f35b610137600480360381019061013291906104c6565b61039e565b6040516101449190610804565b60405180910390f35b6101556103b6565b6040516101629190610753565b60405180910390f35b61018560048036038101906101809190610530565b6103dc565b604051610192919061076e565b60405180910390f35b600260009054906101000a900473ffffffffffffffffffffffffffffffffffffffff1673ffffffffffffffffffffffffffffffffffffffff163373ffffffffffffffffffffffffffffffffffffffff16146101f557600080fd5b565b61020082610365565b61023f576040517f08c379a0000000000000000000000000000000000000000000000000000000008152600401610236906107c4565b60405180910390fd5b61024982826103dc565b610288576040517f08c379a000000000000000000000000000000000000000000000000000000000815260040161027f906107a4565b60405180910390fd5b60016000838360405160200161029f92919061072b565b604051602081830303815290604052805190602001208152602001908152602001600020544211610305576040517f08c379a00000000000000000000000000000000000000000000000000000000081526004016102fc906107e4565b60405180910390fd5b80600260006101000a81548173ffffffffffffffffffffffffffffffffffffffff021916908373ffffffffffffffffffffffffffffffffffffffff1602179055505050565b42600160008381526020019081526020016000208190555050565b600080548260405160200161037a9190610714565b60405160208183030381529060405280519060200120149050919050565b60005481565b60016020528060005260406000206000915090505481565b600260009054906101000a900473ffffffffffffffffffffffffffffffffffffffff1681565b6000806001600085856040516020016103f692919061072b565b6040516020818303038152906040528051906020012081526020019081526020016000205414610429576001905061042e565b600090505b92915050565b600061044761044284610850565b61081f565b90508281526020810184848401111561045f57600080fd5b61046a8482856108f9565b509392505050565b6000813590506104818161099b565b92915050565b600081359050610496816109b2565b92915050565b600082601f8301126104ad57600080fd5b81356104bd848260208601610434565b91505092915050565b6000602082840312156104d857600080fd5b60006104e684828501610487565b91505092915050565b60006020828403121561050157600080fd5b600082013567ffffffffffffffff81111561051b57600080fd5b6105278482850161049c565b91505092915050565b6000806040838503121561054357600080fd5b600083013567ffffffffffffffff81111561055d57600080fd5b6105698582860161049c565b925050602061057a85828601610472565b9150509250929050565b61058d816108a7565b82525050565b6105a461059f826108a7565b61093b565b82525050565b6105b3816108b9565b82525050565b6105c2816108c5565b82525050565b60006105d382610880565b6105dd818561089c565b93506105ed818560208601610908565b80840191505092915050565b600061060660298361088b565b91507f6164647265737320686173206e6f74206265656e2070726576696f75736c792060008301527f636f6d6d697474656400000000000000000000000000000000000000000000006020830152604082019050919050565b600061066c60158361088b565b91507f70617373776f726420697320696e636f727265637400000000000000000000006000830152602082019050919050565b60006106ac60398361088b565b91507f6f776e65727368697020636c61696d696e672063616e6e6f74206265206f6e2060008301527f7468652073616d6520626c6f636b206173206c6f636b696e67000000000000006020830152604082019050919050565b61070e816108ef565b82525050565b600061072082846105c8565b915081905092915050565b600061073782856105c8565b91506107438284610593565b6014820191508190509392505050565b60006020820190506107686000830184610584565b92915050565b600060208201905061078360008301846105aa565b92915050565b600060208201905061079e60008301846105b9565b92915050565b600060208201905081810360008301526107bd816105f9565b9050919050565b600060208201905081810360008301526107dd8161065f565b9050919050565b600060208201905081810360008301526107fd8161069f565b9050919050565b60006020820190506108196000830184610705565b92915050565b6000604051905081810181811067ffffffffffffffff821117156108465761084561095f565b5b8060405250919050565b600067ffffffffffffffff82111561086b5761086a61095f565b5b601f19601f8301169050602081019050919050565b600081519050919050565b600082825260208201905092915050565b600081905092915050565b60006108b2826108cf565b9050919050565b60008115159050919050565b6000819050919050565b600073ffffffffffffffffffffffffffffffffffffffff82169050919050565b6000819050919050565b82818337600083830152505050565b60005b8381101561092657808201518184015260208101905061090b565b83811115610935576000848401525b50505050565b60006109468261094d565b9050919050565b60006109588261098e565b9050919050565b7f4e487b7100000000000000000000000000000000000000000000000000000000600052604160045260246000fd5b60008160601b9050919050565b6109a4816108a7565b81146109af57600080fd5b50565b6109bb816108c5565b81146109c657600080fd5b5056fea264697066735822122075958bc0c59565fbba4b90927b302b8007781d2dfc25cef7aa63b94a34f8694c64736f6c63430008000033",
  "linkReferences": {},
  "deployedLinkReferences": {}
}